:04000000020049327F
:03000B000200C22E
:0100130032BA
:01001B0032B2
:0100230032AA
:01002B0032A2
:01003300329A
:01003B003292
:03004300020213A3
:1000A200753909753A14753B0D753C14753D2F75FC
:0800B2003E14753F4375401434
:0300BF00020046F6
:0300460002068D22
:1000C200C0E0C0D0758CF8758A300521E4B5210CEA
:1000D2000522B522070523B523020524D0D0D0E09E
:1000E2003275A15575A1AA43B1102243D1049000E3
:1000F2000212106253D1FB22C2EA75E20075E4C01B
:1001020075E50075E60075E70175EB4475D4027577
:10011200D60275EC0075ED0075EE8075EF0075EA9C
:100122004475D20275DE0275DC0275E30075D1807A
:1001320075E22943D10175D8FF75E107D2EA22752C
:100142005541755600755740755805755900900010
:100152008075F00012124675D30553D2FC227555F4
:10016200467556007557407558057559009000C080
:1001720075F00012124675D50553D4FC2275554B05
:1001820075560075574075580575590090010075F0
:10019200F00012124675D70553D6FC2275555075DC
:1001A200560075574075580575590090004075F016
:1001B2000012124675DF0553DEFC221201411201C4
:1001C2006012017F02019E12096E7E007F007C0098
:1001D2007D00EC2441F97A007B408E00E804F50DA5
:1001E20089828A838BF0C007C006C005C004120E44
:1001F200B4D004D005D006D00774052CFCE43DFD34
:100202000EBE00010FC3EE9404EF6480948040C2DE
:1002120022C020C0E0C0F0C082C083C007C006C0B8
:1002220005C004C003C002C001C000C0D075D00028
:1002320020D903020649743F55D9FFFEBE000302CE
:10024200063CBF20030205D0BF2102805CBF220210
:100252008040BF23028024BF24028008BF30028076
:100262005F02064775DF0074FC55DE4402F5DEAE20
:10027200DE7F006306408EDE02064775D70074FCFF
:1002820055D64402F5D6AED67F006306408ED6021E
:10029200064775D50074FC55D44402F5D4AED47F1C
:1002A200006306408ED402064775D30074FC55D213
:1002B2004402F5D2AED27F006306408ED2020647D8
:1002C200AFDBBF080280030205AF900006E0F52A0B
:1002D200900007E07006E52A24805003752A7F7F8C
:1002E20000900001E0F529900000E0FE54606035C6
:1002F2007401B529030205B17402B529030205B1DF
:100302007403B529030205B17409B529030205B1C5
:10031200740AB529030205B1740BB529030205B1AC
:100322007FFF0205B1E52924F550030205ABE5295B
:10033200240B83F582E529240F83F583E47394610A
:10034200ABCDAB3B56AB4458B105040504050403E1
:1003520005040405900003E0FEBE01028012BE0205
:1003620002801ABE03028022BE2202804E0203F1E4
:10037200752ED6752F127530807E128074752EE818
:10038200752F127530807E6D8067900002E0FDBD92
:1003920004005023ED2D2439F987040987058C2E9A
:1003A2008D2F753080AB2EAC2FAD308B828C838D30
:1003B200F01212B6FE803A7EFF8036900004E0FD15
:1003C200BD04005026900004E075F02DA42455FCD5
:1003D200741335F0FD8C2E8D2F7530807E2D90009C
:1003E20004E0FDBD030B752B0180067EFF80027EBB
:1003F200FFC3EE952A50028E2A74F8252A50067DF4
:10040200087E008004AD2A7E008D07852E55852F3B
:10041200568530578F5875590090000075F000C00E
:1004220007121246D007E52AC39FF52AEF252EF5BB
:100432002EE4352FF52F0205B1900002E0F52A02D5
:1004420005B1900000E52DF074FF252A4003020556
:10045200B17F010205B1900002E0F52D0205B190D5
:100462000000E0FE53061F7D00BE024EBD004B9011
:100472000004E0FEBE0102803ABE8102802BBE82F1
:1004820002801CBE8302800DBE842D74BC55DE44E6
:1004920002F5DE802574BC55D64402F5D6801B7465
:1004A200BC55D44402F5D4801174BC55D24402F533
:1004B200D2800753D27380027FFF900000E0FE5487
:1004C2001F70030205B17FFF0205B1900000E054E6
:1004D2001F702F900003E0FD7E00900002E0FC7B85
:1004E200004206EB4205BE0114BD00119012EFE47A
:1004F20093FE30E5030205B17FFF0205B17FFF02E3
:1005020005B1900000E0FE53061F7D00BE0205BD4E
:10051200000280028078900003E0FD7E00900002DD
:10052200E0FC7B004206EB4205EE4D705D9000055B
:10053200E0FD7E00900004E0FC7B004206EB4205F9
:10054200BE8105BD00028034BE8205BD000280224C
:10055200BE8305BD00028010BE842BBD002874BF7F
:1005620055DE4403F5DE804774BF55D64403F5D605
:10057200803D74BF55D44403F5D4803374BF55D243
:100582004403F5D280297FFF80257FFF80217FFFF2
:10059200801D900000E4F0900001F074FE252A50C6
:1005A200047F02800AAF2A80067FFF80027FFFBF9E
:1005B200FF097529FF75DCCF020647EF60088FDD62
:1005C20075DCC002064775DD0075DCC080777405F6
:1005D200B52902804D7406B5295874F8252A5006AB
:1005E2007E087F008004AE2A7F00852E55852F5617
:1005F2008530578E5875590090000075F000C0067E
:10060200121246D006E52AC39EF52AEE252EF52EB5
:10061200E4352FF52F8EDDAEDC7F006306408EDCE5
:100622008023E5E35480FFE52AFE4FF5E375DC0203
:10063200801375DD0075DC02800BE5DBAEDC7F002C
:100642006306808EDCC2D930D81875DC0275D202FE
:1006520075D40275D60275DE0275E300C2DAC2D91C
:10066200C2D810DA028004E5DA800375D8FFD0D050
:10067200D000D001D002D003D004D005D006D007DC
:10068200D083D082D0F0D0E0D0203212103390004C
:10069200051210621210841200FA12072A1207F1D0
:1006A2007E007F007C007D00EC2441F98E03EB0488
:1006B200F774052CFCE43DFD0EBE00010FC3EE9461
:1006C20004EF6480948040E0758911758CF8758A16
:1006D20030D28CD2A9D2AF75D30075D50075D700B0
:1006E20075DF00752B00E521C39525FCE5229526D3
:1006F200FDE5239527FEE5249528FFC374289CE495
:100702009DE49EE49F500EB2B08521258522268568
:1007120023278524281201C9E52B60CA1201BD8056
:01072200C511
:1012D6001201100100000008501D2D6000000302DD
:1012E600000109026D00040100A03209040000019A
:1012F60003000001092111010001222D00070581CB
:101306000308000A09040100010300000109211174
:10131600010001222D000705820308000A090402C4
:10132600000103000001092111010001222D00071F
:1013360005830308000A09040300010300000109EC
:101346002111010001222D000705840308000A056A
:10135600010904A1010901A100850109300931151E
:101366000026FF0075089502810205091901290C5E
:10137600150025017501950C8102C0C005010904FF
:10138600A1010901A100850209300931150026FFD6
:101396000075089502810205091901290C15002519
:1013A600017501950C8102C0C005010904A101095E
:1013B60001A100850309300931150026FF007508D3
:1013C6009502810205091901290C150025017501EF
:1013D600950C8102C0C005010904A1010901A10003
:1013E600850409300931150026FF0075089502812C
:1013F6000205091901290C150025017501950C81B5
:1014060002C0C00403090422034E00450053002F06
:101416000053004E00450053002000470061006D58
:10142600006500700061006400140334004E00453E
:10143600005300340053004E004500530010035281
:0D144600006100700068006E006500740019
:0500BA00E4F508F50962
:10072300780AE654BFF622780AE64440F622780AAD
:10073300E654DFF6C2B130951CD2B290000C121011
:1007430045209511C2B290000C12104530950678E1
:100753000AE64420F6D2B130951CD2B290000C12B6
:100763001045209511C2B290000C12104530950629
:10077300780AE64420F6227F00D2B290000CC0072C
:10078300121045D007C2B27E007C007D00900006A7
:10079300C007C006C005C004121045D004D005D060
:1007A30006D007C2B320940ABC1308BD00057F011D
:1007B30080010E900006C007C006C005C0041210D9
:1007C30045D004D005D006D007D2B30CBC00010D30
:1007D300C3EC9418ED6480948040B2780AE654EF39
:1007E300F6EF6009BE1706780AE6441FF622539611
:1007F300F043970F4392F04393F0D2B3C2B2780A17
:10080300E654F0F6780AE620E611780AE64440F664
:1008130012096E780AE654BFF6800312096E1207B6
:100823007A0207317F007E007D007C00D2B2900007
:100833000CC007C006C005C004121045D004D00583
:10084300D006D007C2B27A007B00900006C007C072
:1008530006C005C004C003C002121045D002D00375
:10086300D004D005D006D007C2B38F01E929FF8E8B
:1008730001E929FE20940343070120950343060160
:10088300900006C007C006C005C004C003C0021222
:100893001045D002D003D004D005D006D007D2B380
:1008A3000ABA00010BC3EA9408EB64809480409A6F
:1008B3007A007B00900006C007C006C005C004C0D4
:1008C30003C002121045D002D003D004D005D006D5
:1008D300D007C2B38D01E929FD8C01E929FC2094DD
:1008E30003430501209503430401900006C007C09C
:1008F30006C005C004C003C002121045D002D003D5
:10090300D004D005D006D007D2B30ABA00010BC376
:10091300EA9408EB64809480409A7A007B0090000C
:1009230006C007C006C005C004C003C002121045BC
:10093300C2B3900006121045D002D003D004D005F4
:10094300D006D007D2B30ABA00010BC3EA9408EB6E
:100953006480948040C8900140EFF0900142EEF033
:10096300900144EDF0900146ECF0227F007E007D83
:10097300007C00780AE630E403020827780AE620C0
:10098300E503020B6FD2B290000CC007C006C0058E
:10099300C004121045C2B290000C121045D2B1909F
:1009A3000006121045D004D005D006D007E4F50B9D
:1009B300F50CC2B3900006C007C006C005C0041200
:1009C3001045D004D005D006D0078F03EB2BFF8E44
:1009D30003EB2BFE209403430701209503430601F9
:1009E300D2B3900006C007C006C005C0041210456C
:1009F300D004D005D006D007050BE4B50B02050CD7
:100A0300C3E50B9408E50C6480948040A5900140F5
:100A1300EFF0900142EEF07A007B00C2B390000643
:100A2300C007C006C005C004C003C002121045D0F1
:100A330002D003D004D005D006D007EFC313FFEED6
:100A4300C313FE209403430780209503430680D2FB
:100A5300B3900006C007C006C005C004C003C002AF
:100A6300121045D002D003D004D005D006D0070A17
:100A7300BA00010BC3EA9408EB64809480409CC2E3
:100A8300B1900006C007C006C005C004121045D0CF
:100A930004D005D006D007E4F50BF50CC2B39000E3
:100AA30006C007C006C005C004121045D004D00517
:100AB300D006D0078D03EB2BFD8C03EB2BFC20948E
:100AC30003430501209503430401D2B3900006C0FC
:100AD30007C006C005C004121045D004D005D006D7
:100AE300D007050BE4B50B02050CC3E50B9408E531
:100AF3000C6480948040A5900144EDF0900146EC95
:100B0300F07A007B00C2B3900006C007C006C005A0
:100B1300C004C003C002121045D002D003D004D0D9
:100B230005D006D007EDC313FDECC313FC209403DB
:100B3300430580209503430480D2B3900006C00789
:100B4300C006C005C004C003C002121045D002D0C5
:100B530003D004D005D006D0070ABA00010BC3EABC
:100B63009408EB64809480409C020C8FD2B2900076
:100B73000CC007C006C005C004121045D004D00540
:100B8300D006D007C2B2E4F50BF50C900006C007FF
:100B9300C006C005C004121045D004D005D006D04D
:100BA30007C2B38F03EB2BFF8E03EB2BFE8D03EBFF
:100BB3002BFD8C03EB2BFC209403430701209503AF
:100BC3004306012096034305012097034304019044
:100BD3000006C007C006C005C004121045D004D0EB
:100BE30005D006D007D2B3050BE4B50B02050CC341
:100BF300E50B9408E50C64809480408F900140EFEE
:100C0300F0900142EEF0900144EDF0900146ECF0DB
:100C13007A007B00900006C007C006C005C004C070
:100C230003C002121045D002D003D004D005D00671
:100C3300D007C2B3EFC313FFEEC313FEEDC313FD1F
:100C4300ECC313FC209403430780209503430680E1
:100C5300209603430580209703430480900006C039
:100C630007C006C005C004C003C002121045D0026D
:100C7300D003D004D005D006D007D2B30ABA0001FE
:100C83000BC3EA9408EB648094804088780AE620DA
:100C9300E603020D54BFFF17780AE6540FFB7401F5
:100CA3004B780A540FF5F0E654F045F0F6801578CA
:100CB3000AE6540FFB740E5B780A540FF5F0E65402
:100CC300F045F0F6BEFF17780AE6540FFB74024BAB
:100CD300780A540FF5F0E654F045F0F68015780ADB
:100CE300E6540FFB740D5B780A540FF5F0E654F0ED
:100CF30045F0F6BDFF17780AE6540FFB74044B78F2
:100D03000A540FF5F0E654F045F0F68015780AE63C
:100D1300540FFB740B5B780A540FF5F0E654F0455F
:100D2300F0F6BCFF17780AE6540FFB74084B780AF9
:100D3300540FF5F0E654F045F0F68015780AE654C2
:100D43000FFB74075B780A540FF5F0E654F045F097
:100D5300F6780AE6540F30E0067A007B0080048FB1
:100D6300027B00900141EAF0780AE6540F30E10675
:100D73007B007F0080048E037F00900143EBF078BB
:100D83000AE6540F30E2067E007F0080048D067F62
:100D930000900145EEF0780AE6540F30E3067E003A
:100DA3007F0080048C067F00900147EEF022E582ED
:100DB300FF30E0047582FF22EF30E10475820022E8
:100DC30075828022E582FF30E2047582FF22EF30D4
:100DD300E3047582002275828022AF8274805FFCF7
:100DE300E4C423CCC423541F6CCC541FCC6CCC3030
:100DF300E40244E074405FFBE4A2E7CB33CB33A2CD
:100E0300E7CB33CB33CB540330E10244FCEC420356
:100E130074205FFCE4C423CCC423541F6CCC541F44
:100E2300CC6CCC30E40244E0EB4204530710E4A260
:100E3300E713CF13CFEF4CF58222AD82AE83AFF031
:100E43001212B6FC74805CF9E4A2E7C933C933C952
:100E5300540130E00244FE74405CF8E4C403C8C4A7
:100E630003540768C85407C868C830E20244F8E965
:100E7300420074205CF9E4C423C9C423541F69C924
:100E8300541FC969C930E40244E0E8420153041025
:100E9300E4A2E713CC13CCEC42010DBD00010E8D8F
:100EA300828E838FF01212B6540FC454F049F58228
:100EB3002285820E85830F85F010E50D6006E50D12
:100EC30024FB500475820022AB0D7C00EB24FFF55C
:100ED30011EC34FFF512E50E450F700302102F7469
:100EE30001250EF513E4350FF514851015E51125CD
:100EF30011FFFD3395E0FEED2440FDEE3401FE8D40
:100F0300828E83E0F582C007C006C005120DB1AC26
:100F130082D005D0068513828514838515F0EC12E3
:100F2300129B7402250EF513E4350FF51485101585
:100F33008D828E83E0F582C006C005120DC7AC8298
:100F4300D005D006D0078513828514838515F0EC70
:100F530012129B780AE6540FFC8511F005F0751305
:100F630001751400800BE5132513F513E51433F510
:100F730014D5F0F28C037C00E5135203E5145204FC
:100F8300EB4C603E7403250EF513E4350FF5148521
:100F930010158D828E83E0F582120DDDAC828513F0
:100FA300828514838515F0EC12129B7404250EFAC6
:100FB300E4350FFBAC108A828B838CF0E412129B16
:100FC300806A7403250EF513E4350FF514851015A7
:100FD3008E047E008D828C838EF0C007120E3DAE90
:100FE30082D0078513828514838515F0EE12129B38
:100FF3007404250EFCE4350FFDAE100FEF3395E0BE
:10100300FBEF2440F582EB3401F583E0FF5307F057
:10101300E4CFC4540F6FCF540FCF6FCF30E30244EC
:10102300F0FB8C828D838EF0EF12129B758205226A
:1010330075A15575A1AA74F855B94403F5B975A1FD
:101043000022AE82E583C313CE13CEC313CE13CED9
:10105300FFEE4F600905A11EBEFF011F80F322AE04
:1010630082AF83EE4F60159003E8C007C0061210ED
:1010730045D006D0071EBEFF011F80E72243C610DE
:1010830022C29FD29EC29DC2CDC2CC438780751619
:1010930086751701E4F518F51975550AF556F557D0
:1010A300F5588516828517838518F0E51912115EA8
:1010B300AC828C1A75550AE4F556F557F558851622
:1010C300828517838518F0E5191211E1858216854B
:1010D300831785F018F51974FB251A5019AC16AD52
:1010E30017AE18AF1974012CF516E43DF517E43E5D
:1010F300F518E43FF519740F55894420F58943C960
:10110300A0AF16C3E49FF58DD28ED299D29C221044
:10111300980280FB8599822285829910990280FB2F
:1011230022C2C7D2C5D2C475C2D92210C00280FB65
:1011330085C182228582C130C1FDD2C122AF8275B1
:10114300A15575A1AAEF600543B101800353B1FE18
:1011530075A10075FF00228582FF22F9E5554556EA
:101163004557455860777800C308E55820E73BE5C5
:101173005525E0F555E55633F556E55733F557E56F
:101183005833F558E5829555E5839556E5F095571F
:10119300E9955850D4C3E55813F558E55713F55757
:1011A300E55613F556E55513F555E5829555FCE5DA
:1011B300839556FDE5F09557FEE995584007F98E5E
:1011C300F08D838C82C3E55813F558E55713F55713
:1011D300E55613F556E55513F555D8CEE922FB7AB6
:1011E30020E4FCFDFEFFE5822582F582E58333F5ED
:1011F30083E5F033F5F0EB33FB4017DAE98042E5A2
:10120300822582F582E58333F583E5F033F5F0EB50
:1012130033FBEC33FCED33FDEE33FEEF33FFEC95A4
:1012230055ED9556EE9557EF95584013EC9555FCB3
:10123300ED9556FDEE9557FEEF9558FF438201DA83
:03124300BEEB22DD
:06007800E478FFF6D8FD5C
:10124600AD82AE83AFF08D5A8E5B8F5C85555D8522
:10125600565E85575FA858A9598803890418B8FFB0
:101266000119EB4C6025855D82855E83855FF012F2
:1012760012B6FCA385825D85835E8D828E838FF098
:10128600EC12129BA3AD82AE8380CE855A82855B1B
:0512960083855CF022DD
:100056007900E94400601B7A00901453784875A033
:1000660001E493F2A308B8000205A0D9F4DAF27508
:02007600A0FFE9
:10129B0020F71130F6138883A88220F509F6A8836E
:0B12AB007583002280FEF280F5F02227
:10007E007800E84400600A794075A001E4F309D8DD
:10008E00FC7808E84400600C7901900140E4F0A38C
:04009E00D8FCD9FAB7
:0D00490075815F1212D2E58260030200464D
:1012B60020F71430F6148883A88220F507E6A88361
:1012C60075830022E280F7E49322E02275820022F1
:00000001FF
